:020000040800F2
:1000000040590020190300084956000861530008B0
:10001000455600081D280008116100080000000076
:10002000000000000000000000000000C1560008B1
:10003000752800080000000051560008ED56000821
:1000400033030008330300083303000833030008B8
:1000500033030008330300083303000833030008A8
:100060003303000833030008330300083303000898
:10007000392800083303000833030008330300085D
:100080003303000833030008330300083303000878
:100090002128000833030008330300083303000855
:1000A0003303000833030008330300083303000858
:1000B0003303000833030008330300083303000848
:1000C0003303000833030008330300083303000838
:1000D00033030008ED60000833030008F9600008EE
:1000E0003303000833030008330300083303000818
:1000F0003303000833030008330300083303000808
:1001000033030008330300083303000833030008F7
:100110003303000833030008CD570008D9570008FF
:10012000330300084528000851280008330300085D
:1001300033030008330300083303000833030008C7
:100140002D28000833030008330300083303000898
:10015000330300085D2800086928000805610008CD
:100160003303000833030008330300083303000897
:1001700033030008330300083303000800000000C5
:10018000330300083303000800F002F800F0B5F86C
:1001900014A696E8000CB244B344DA4501D100F04D
:1001A000ACF8BAE80F000FA696E83000A5EB0405FE
:1001B00004EB0607AAEB0704A7F101074FEA1515A0
:1001C0004FEA3414A4F10104AC4201D300F095F8D5
:1001D00013F0010F18BFFB1A43F0010300F001F800
:1001E000DBE718470CA400002CA40000103A24BF41
:1001F00078C878C1FAD8520724BF30C830C144BF8C
:1002000004680C6070470000704700000023002461
:1002100000250026103A28BF78C1FBD8520728BF16
:1002200030C148BF0B6070476E2900F015877029F8
:1002300001F04B80662909F00C85652909F00985D4
:10024000672909F00685612909F0058503681B0AFD
:1002500028BF41F08001692900F0C286642900F0BE
:10026000BF86752900F0BC866F2900F0D9877829F0
:1002700001F01780E92900F07387E42900F0708706
:10028000F52900F06D87EF2900F0D687F82901F0F5
:1002900016800368DB0928BF41F08001632901F063
:1002A000FF85732901F00486E32901F00F86F32905
:1002B00001F01486002070471FB509F0BDFC9DE8D1
:1002C000030000F099FB00F025FE0400002000214F
:1002D00009F086FC401C60600020002109F096FCBB
:1002E000E06001F0C1F800F043FA1FBD10B5002036
:1002F00000F07AFD01F021F910BD00F09BFD1146E0
:10030000FFF7DAFF07F092F800F0E1FD03B4FFF722
:10031000EDFF03BC00F0F6FD09488047094800479F
:10032000FEE7FEE7FEE7FEE7FEE7FEE7FEE7FEE7A5
:10033000FEE7FEE704480549054A064B7047000002
:10034000B957000889010008405300204059002097
:10035000405500204055002053EA020C00F069800F
:100360002DE9F04B4FF00006002B1FBFB3FA83F5C9
:1003700003FA05F424FA05F65E4012BF1643B2FAFA
:1003800082F502FA05F4C5F120051EBF22FA05FC2C
:1003900044EA0C04203556EA044C4FEA144418BFD2
:1003A000641C4FF000084FF00009904271EB030C01
:1003B00039D3002919BFB1FA81F701FA07F6B0FA6B
:1003C00080F700FA07F6C7F120071EBF20FA07FCE6
:1003D00046EA0C062037B6FBF4FCA7EB0507103FF6
:1003E00007F01F0BCBF120062CFA06F60CFA0BFBDC
:1003F00044BFB3460026202FA4BF5E464FF0000B3B
:100400005BEA060C08BF4FF0010B19EB0B0948EB38
:100410000608ABFB027C06FB02CC0BFB03CCC01B2B
:1004200071EB0C01C1E70B46024641464846BDE868
:10043000F08B13B5084318BF4FF0FF300146AFF300
:100440000080BDE81C4070470FB400B58DB010A906
:10045000099000910B904FF0FF300A9000200C9013
:10046000064878440690064878446A4607900F99F3
:1004700009A800F055FA0DB05DF814FBDB0400008C
:10048000F30400002DE9FF5F1D464FF0FF3B91464E
:100490004FF000085F46D5E90146A96901987F1C25
:1004A0008847296A824688470028F6D1BAF1FF3F7B
:1004B0000CD0002E24F4C06419DD600614D5BAF106
:1004C0002B0F09D0BAF12D0F0ED103E0584604B01E
:1004D000BDE8F09F44F48064A96901987F1C8847B7
:1004E000761E8246002E02DDBAF1300F03D0B9F13C
:1004F000000F26D032E0A969761E01987F1C44F4D3
:1005000000748847002E824605DDBAF1780F06D0C8
:10051000BAF1580F03D0B9F1000F10D01EE0B9F1B5
:10052000000F02D0B9F1100F18D1A969761E0198F9
:100530007F1C24F4007488478246102002E00820C3
:1005400000E00A20814609E0A96908FB0908761E37
:1005500001987F1C44F4007488478246002E05DD14
:100560004946504600F0C7F90028EDDAE9690198DC
:100570008847A00502D46FF00100A8E7E00725D165
:10058000600613D5600502D5C8F1000000E04046C2
:1005900029680A1D2A600968220501D5087015E03E
:1005A000220701D5088011E008600FE02868011DCE
:1005B00029600068210502D580F8008006E0210747
:1005C00002D5A0F8008001E0C0F8008038467EE740
:1005D0000B460146184600F0D3B9032A40F230809A
:1005E00010F0030C00F0158011F8013BBCF1020F74
:1005F000624498BF11F801CB00F8013B38BF11F8F5
:10060000013BA2F1040298BF00F801CB38BF00F80B
:10061000013B11F0030300F02580083AC0F0088088
:1006200051F8043B083A51F804CBA0E80810F5E76C
:10063000121D5CBF51F8043B40F8043BAFF300804F
:10064000D20724BF11F8013B11F801CB48BF11F8C4
:10065000012B24BF00F8013B00F801CB48BF00F894
:10066000012B704710B5203AC0F00B80B1E818504C
:10067000A0E81850B1E81850A0E81850203ABFF48C
:10068000F5AF5FEA027C24BFB1E81850A0E818502B
:1006900044BF18C918C0BDE810405FEA827C24BF7F
:1006A00051F8043B40F8043B08BF7047D20728BF0D
:1006B00031F8023B48BF11F8012B28BF20F8023B5C
:1006C00048BF00F8012B704702F0FF0343EA032202
:1006D00042EA024200F024B84FF000020429C0F0C0
:1006E000128010F0030C00F01B80CCF1040CBCF164
:1006F000020F18BF00F8012BA8BF20F8022BA1EBB6
:100700000C0100F00DB85FEAC17C24BF00F8012B9A
:1007100000F8012B48BF00F8012B70474FF0000292
:1007200000B5134694469646203922BFA0E80C50E7
:10073000A0E80C50B1F12001BFF4F7AF090728BFC2
:10074000A0E80C5048BF0CC05DF804EB890028BF3E
:1007500040F8042B08BF704748BF20F8022B11F067
:10076000804F18BF00F8012B7047704770477047E3
:1007700008487CB57844009007487844009C0546BA
:10078000019004E02046016808448047241DAC42E3
:10079000F8D17CBDC49F0000C29F000070B5064622
:1007A00000F006F9056806F10B0020F00704B442DA
:1007B0009CBF002070BD2B466A68BAB11068A04289
:1007C00010D304F1080188423CBF5068586007D339
:1007D0005168101941601168091B0160586014606C
:1007E000101D70BD13465268002AE7D121462846E5
:1007F00000F0EEF80028DED170BD70B50446051F8C
:1008000000F0D6F80068002C14BF446870BD002CBE
:1008100018BFAC423CBF20466468F8D301680A1890
:10082000AA4218BF456003D12A68054611440160F9
:1008300028684119A1421CBF6C6070BD6168696085
:1008400021680844286070BD2DE9F04791460C46A8
:10085000804600F0ADF80768604234EA000001D13C
:10086000042C02D20520BDE8F087601E40F0070688
:1008700009F10B0020F007054D4539D93B467A6850
:1008800082B31468101D404206EA000C644525D965
:10089000A4EB0C00854221D8BCF1000F0BD0104610
:1008A00001686244A1EB0C01116041685160C0F81D
:1008B00000C058600346116805F10800814205D365
:1008C0005019491B016015605860034652F8040F27
:1008D00058600020C8F80020BDE8F0871346526831
:1008E000002ACED12946384600F072F80028C5D13A
:1008F0000620BDE8F0873A2800D2303820F02002E8
:10090000412A01D3A2F13700884201D34FF0FF30D2
:100910007047000002681144137801601846704760
:10092000D16005497944516104497944116200213B
:100930001161114600F09EB8EDFFFFFF3501000088
:10094000426842B1016811F8013B23B1521EC0E96F
:100950000012184670470121C160881E7047426826
:100960005AB1C368016843B983688B4205D0491EF8
:10097000521CC0E90012002070474FF0FF30704752
:100980002DE9F041074615460E461020FFF706FFF9
:1009900004000AD06760C4E9026500F00DF8016840
:1009A000216004600020BDE8F0810120FBE7000029
:1009B000004870479000002000487047C0000020A9
:1009C00000487047880000207047704770477047A4
:1009D00038B504460A4600206946AFF30080002877
:1009E00008BF38BD02460099204600F051FA0120A8
:1009F00038BD012000F07FBAF8B5AFF3008005469E
:100A000000200C460C2000BF0646A819A0420DD9B4
:100A1000324669460020AFF30080070008BF00F0AF
:100A20006AFA0098A04218BF0546C419FFF7C0FF34
:100A300005600746F01D20F007004619284600F023
:100A40000AF8B44208BFF8BDA21B31463868BDE8B9
:100A5000F84000F01DBA00210160416070470C2091
:100A6000704710B5044600F00BFA0068005D00F016
:100A7000010010BD2DE9F34F4FF0000A0C46564619
:100A80008DB001200C9001F10C000B9062690B9865
:100A900001219047051E2DD0252D2CD0216A884795
:100AA000C0B162690B9801219047216A88470028EC
:100AB000F7D16269411E0B98904700E0761CA1694E
:100AC0000D988847216A88470028F7D1E1690D9879
:100AD0008847DBE7A1690D988847A842074601D1FE
:100AE000761CD3E7E1690D9888477F1C02D1BAF1E3
:100AF000000F6FD06BE162690B9800273D463946C5
:100B000090472A2804D162690B980121904701255A
:100B1000DFF8D08262690B9801219047A0F1300183
:100B20000A290AD24745E5DC07EB870100EB4107BC
:100B3000303FDFD445F01005ECE7E90601D46FF053
:100B400000476C280AD04C2814D0682815D06A2891
:100B50000DD074281CD07A281AD01DE062690B9839
:100B6000012190476C2802D045F0040514E045F0BF
:100B700002050DE045F020050AE062690B980121AD
:100B80009047682802D045F0080505E045F4006567
:100B900062690B9801219047C4E9015765283DD04F
:100BA00019DC58287AD00CDC452837D004DC2528FD
:100BB00026D041289ED131E046282FD0472899D110
:100BC0002CE05B2877D0612828D063287CD064286B
:100BD00023D15AE0F6E06F2848D008DC66281DD003
:100BE00067281BD0692821D06E2816D127E07028ED
:100BF00045D0732868D0752847D078280DD14DE0AE
:100C0000A1690D988847252805463FF469AFE16939
:100C10000D9888476D1C3FF46AAFD8E00D992346C4
:100C20006A466FF00100AFF30080C5E045F0400078
:100C300023464FF000026060A80736D43EE0E80784
:100C40007FF447AF2068011D21600068290501D5A8
:100C500006701BE7290701D5068017E7A90703D50A
:100C6000F117C0E9006111E706600FE745F04000A9
:100C700023464FF008026060A80716D41EE040F635
:100C80000E0125EA0100606016E045F040002346B1
:100C90004FF00A026060A80707D40FE045F040005B
:100CA0006060A80708D5234610220D996FF0010057
:100CB000AFF3008080E007E0102223460D996FF02B
:100CC0000100FFF7DFFB77E04FF0000963284F4694
:100CD000C8464B46CB4602D05B2806D038E0E80633
:100CE00001D40120A060012732E06269D4F80CB081
:100CF0000B98012190475E2807D14FF00109494622
:100D00006269D4F80CB00B989047216939B9002179
:100D10000A4603AB43F82120491C0829FADBD8B363
:100D2000216949B308F1010862690B9801219047D4
:100D30005D28F4D1B9F1000F09D0002003A951F8C2
:100D40002020D24341F82020401C0828F7DB03ABC9
:100D50002069002820794FEA40701ED05B46224669
:100D6000CDF80080CDE901970D9900286FF00100C2
:100D700020DAAFF300801FE0C11703AA00EBD161B6
:100D80004B1121F01F0102EB8302411A136801206D
:100D9000884003431360C7E719E00D9922460028F5
:100DA0006FF00100009702DAAFF3008004E0AFF3C8
:100DB000008001E0AFF3008000280ADA401C06D171
:100DC0000C9820B14FF0FF300FB0BDE8F08F5046C7
:100DD000FAE7E90701D10AF1010A064400200C9064
:100DE00054E60000CCCCCC0C2DE9F0410646FFF7D0
:100DF000E3FD8046454613E016B1E068B0420ED1EF
:100E000020682860D4E90101D8F80070884720469E
:100E1000FFF7F3FCD8F80000B842EBD100E025461C
:100E20002C68002CE8D1BDE8F08100000048704734
:100E3000880000207546FFF7F9FFAE4605006946B9
:100E4000534620F00700854618B020B5FFF772FA28
:100E5000BDE820404FF000064FF000074FF00008BB
:100E60004FF0000BAC46ACE8C009ACE8C009ACE8F8
:100E7000C009ACE8C00921F007018D4670470000A9
:100E800010B500F047F8001D10BD00BF558D0000E3
:100E9000034640688C46002818BF88423CBF034682
:100EA0004068F8D318681844884207D00CF1030052
:100EB00020F00700001D411A521A0146081D0A6061
:100EC000FFF79BBC0B460146184600F0D9B810B599
:100ED0000446AFF300802046BDE81040FFF716BA85
:100EE00010B5002000F061FBFFF700FABDE81040EC
:100EF000012000F007B810B500F05EFBBDE810401F
:100F000000F04EBB01491820ABBEFEE726000200F0
:100F10007047000000487047A800002070B50446E4
:100F200085690068C10601D5302600E02026C0078B
:100F300007D070BDD4E9012130469047206A401C9B
:100F400020626D1EF6D570BD70B5044685690078C7
:100F5000C00707D170BDD4E9012120209047206A45
:100F6000401C20626D1EF6D570BD09684A0501D58A
:100F700040B27047C905FCD500B2704709684A0500
:100F800001D5C0B27047C905FCD580B2704770B5B5
:100F90000C460546012A05D02878800600D5EA6966
:100FA000002302E0012305E05B1C934202D2E05CD7
:100FB0000028F9D1A869E618C01AA861286A18445F
:100FC00028622846FFF7AAFF04E0D5E9012114F8BA
:100FD000010B9047B442F8D32846FFF7B5FF70BD28
:100FE0002DE9F0410646002410687529314616A502
:100FF00010D0FFF7BAFF002802DA404213A507E03D
:1010000031688A0701D512A502E0490704D511A568
:10101000012401E0FFF7B2FF00210A2206F12407B4
:1010200009E0B0FBF2FCB0FBF2F302FB1C00303035
:1010300078541846491C0028F3D123462A463046E6
:10104000BDE8F04100F025BB000000002D000000CD
:101050002B0000002000000011680268006A5305A0
:1010600001D508700AE0D30501D5088006E0130613
:1010700003D5C217C1E9000200E0086001207047F3
:10108000074B70B50D467B4400F0EDFE0446284644
:1010900000F028FF10B14FF0FF3070BD204670BD4A
:1010A000398B00002DE9FF5F15468A460446DFF8BC
:1010B000AC80F8440027D8E900103E46CDE9001086
:1010C00010E03AF816106A4602A800F0D1FF411C61
:1010D00007D02178890603D5E269391891420DD8E5
:1010E0000744761C2078800602D5E069B84205DD09
:1010F000AE42E6DB3AF816000028E2D1A069C01B38
:10110000A0612046FFF70AFFD8E90010CDE90010E2
:10111000002017E03AF818106A4602A800F0A8FF6D
:10112000B0F1FF3F81460BD000250DF1080B05E023
:10113000D4E901211BF8050090476D1C4D45F7D3FC
:1011400008F10100B0428046E4DB206A38442062A6
:101150002046FFF7F9FEBDE8FF9F0000A68B0000C8
:101160002DE9F0418046D21D22F007020025D2E988
:101170000002F52915A614D0011E72F1000106DA4D
:101180000023D0EB030063EB020211A608E0D8F8BD
:1011900000108B0701D50FA602E0490701D50EA666
:1011A00001251146002408F1240704E000F02CFA80
:1011B00030323A55641C50EA0102F7D12B463246D0
:1011C00021464046BDE8F04100F063BA000000004F
:1011D0002D0000002B0000002000000030B4002192
:1011E00000F1240408E002F00705D208303542EA95
:1011F0004372DB086554491C52EA0305F3D10468C5
:10120000002310A2250708D504F020040C4304D0C5
:10121000C46901230CA2641EC46130BC00F039BA59
:1012200010B5044621461068FFF7A8FE0246204686
:10123000BDE810400023D1E7D21D22F00701D1E91B
:101240000023CBE70000000030000000F0B40D46A2
:101250000188090502D5214C7C4402E01F4C7C44E6
:101260000E34002100F1240608E002F00F071209F5
:10127000E75D42EA03721B097754491C52EA0307EF
:10128000F3D102780023120704D5702D06D009B1DE
:10129000022311342246F0BC00F0FBB901231034C4
:1012A000F8E770B504460D4621461068FFF766FE64
:1012B000024629462046BDE870400023C6E7D21DFD
:1012C00022F00703D3E90023C0E70368126843F064
:1012D000200303600823C3610023B7E7088A0000E6
:1012E0002DE9F05F894604464FF0000ADFF874B13B
:1012F000FB44C0F820A02046E1688847002874D04D
:10130000252806D0D4E901219047206A401C20629C
:10131000F1E700265F462046E16888472028054619
:1013200007DB312D05D2781910F8200C08B10643DF
:10133000F1E7B00701D526F00406C4F81CA0002789
:10134000C4F818A02A2D09D0284608F033FC38B379
:1013500004EB8708303DC8F8185019E059F8041B11
:10136000204604EB87029161E1688847012F05461A
:1013700018D1E069002820DA26F020061DE0D8F810
:10138000180000EB800005EB40003038C8F818006A
:101390002046E1688847054608F00CFC0028EED19D
:1013A000012F0AD02E2D08D12046E16888477F1CE6
:1013B0000546022F46F02006C4DBA069002803DAA8
:1013C000404246F00106A061F00701D026F0100669
:1013D0006C2D0BD0682D09D04C2D39D06A2D35D00D
:1013E000742D35D07A2D33D016E038E0E1682F46E1
:1013F00020468847B842054609D16C2F26D04FF4C5
:101400008060E168064320468847054604E06C2F6B
:101410001AD04FF4807006430DB3A5F1410019288E
:1014200002D8203546F400664A4629462046266002
:101430004E46FEF7F9FE80B101280BD0F61D26F0CE
:10144000070000F1080956E74020E4E78020D8E7CC
:101450000020D6E706F104094DE7284652E7206A46
:10146000BDE8F09F9889000010B542485421FFF76D
:1014700055F941485421FFF751F940485421FFF7ED
:101480004DF93F493B483C4A3F4B08603D490A60A3
:101490003A491960531C0365481C10650120086512
:1014A0003B48344A39A1784400F044FD20B938481B
:1014B00078440A3800F032FE37482F4A35A1784484
:1014C00000F038FD20B9344878440A3800F026FE90
:1014D00032482A4A2FA1784400F02CFD20B92F4829
:1014E00078440A3800F01AFE40232248DC0000212C
:1014F000224600F0FBFC20B125487844543800F027
:101500000DFE1D4822464023002100F0EFFC20B1D3
:1015100021487844543800F001FE18482246102330
:10152000002100F0E3FC002806D01C487844BDE808
:101530001040563800F0F2BD10BD104870B5006D77
:1015400020F001040B4800F06DFD0B4800F06AFD2F
:101550000A4800F067FD09E0206D20F001052046F3
:1015600000F060FD2046FFF748F92C46002CF3D12F
:1015700070BD0000E80000203C0100209001002028
:10158000000000200400002008000020720000007D
:10159000F387000077000000DF870000CB870000A2
:1015A000002801D0FFF7AEBC704710B500F09EFDDB
:1015B000BDE81040FFF7F4BF10B5012805D00021A9
:1015C00003A000F079FD012010BD09A1F8E700009B
:1015D00053494752544D454D3A204F7574206F661C
:1015E0002068656170206D656D6F72790000000084
:1015F0003A2048656170206D656D6F727920636F68
:10160000727275707465640030B5B0F10A0271F1E0
:1016100000034FEA900E4EEA817EB0EB0E0061EBC4
:1016200091014FEA101E4EEA017E10EB0E0041EBD5
:1016300011114FEA102E4EEA016E10EB0E0041EB35
:1016400011214FEA104E4EEA014E10EB0E0041EB15
:101650001141401841F100014FEAD00040EA4170C9
:101660004FEAD1014FEA810444EA907410EB8005FF
:1016700044EB01046D1944EB0404521BA3414FF0E9
:10168000000348BF0A3200D530BD401C41F10001C3
:1016900030BD2DE9F0470D4699469246044600F1CB
:1016A00024080168880604D5E06921F01001216052
:1016B00000E00120A84201DD471B00E00027A169EE
:1016C0007A1902EB0900081AA0612078C00602D43A
:1016D0002046FFF723FC002608E0D4E901211AF890
:1016E00006009047206A401C761C20624E45F4DBC1
:1016F0002078C0060AD52046FFF710FC06E0D4E9A2
:10170000012130209047206A401C2062381EA7F13A
:101710000107F4DC07E0D4E9012118F8050090473F
:10172000206A401C2062281EA5F10105F3DC20463A
:10173000FFF70AFC2078000602D50220BDE8F087FA
:101740000120FBE72DE9FF4F0C461E464FF0FF3707
:101750008BB0D2E90001DDF860800A908A46C1F3BF
:101760000A5505B93D46002108464FF00000BAF180
:10177000000F00F4400005DA00EB80004FF4400158
:1017800001EA50004FEA9059B9F1010F00DDB94666
:101790000A9850EA4A000ED044F61050A5F2FF35E0
:1017A00045432F14B8F1000F1ED07542291E1EDDCF
:1017B000C9F100021CE0B8F1010F4FF0000001D0A8
:1017C000302103E0F24305E02154401CB042FBDB32
:1017D00030460022002121540B99C1F80880C1E94C
:1017E00000200FB0BDE8F08FBD1B6D1CDEE74A4640
:1017F00000DA694206A800F053FD06AB93E8070043
:1018000003AB83E8070050460A9907F0E1FD8DE835
:101810000700A0F500501F3800900398002D0ADD46
:1018200042F21F014A460844002303A90390684678
:1018300008F04AF809E0A0F500504A461F38002396
:1018400003A90390684608F054F88DE807000004E7
:10185000000C03D04FF0FF30410800E01046B8F113
:10186000000F03D00022009215461EE0751E05D41D
:10187000FFF7CAFE303262556D1EF9D5B34601221C
:10188000084302D000227F1C04E02078302801D1D8
:1018900000227F1E002A099784D01DE0112D07DA4F
:1018A000FFF7B2FE303262556D1C50EA0102F5D1ED
:1018B000084302D00098C8B10EE00021681E05E080
:1018C000235C625C63542254401E491C8142F7DB56
:1018D000AB46A81B401E0990002004F80B000B9893
:1018E000099AC0F80880C0E9002B7AE711264FF06A
:1018F000000857E72DE9F04F88460446D21D22F034
:10190000070191B0D1E90001CDE90A0108F03AF9E7
:1019100002460B98C00F01D02D2007E020688107F8
:1019200001D52B2002E0202101EAC000032A099002
:1019300001D0072A05DB03464146204600F070FC33
:101940000BE12078800601D5E06900E00620B8F1BF
:10195000650F814606D0B8F1660F18D0B8F1670F51
:1019600070D131E00020B9F1110F009001DB11239B
:1019700001E009F101030AAA01A90CA8FFF7E2FEA0
:10198000DDE90C70002609F10105834647E00120DE
:101990004B4600904FF000470AAA01A90CA8FFF798
:1019A000D1FEDDE90DB00C995D46002610B909F1B4
:1019B00001000D18B9EB050003D4C0F1FF3609F1A1
:1019C0000105A5EB09002BE0B9F1010F01DA4FF099
:1019D00001090020B9F1110F0090484601DD1123E3
:1019E00000E003460AAA01A90CA8FFF7ABFEDDE957
:1019F0000C704D4600268346207800070AD4AB457C
:101A000000DA5D4601A8012D04DD411911F8011C21
:101A1000302907D04F4502DA17F1040F04DA01200C
:101A200082460FE06D1EEEE7002F02DCED1B3E4408
:101A300003E0781CA84200DD7D1CB81B00F1010A00
:101A40004FF000472078000703D4AA4501DB4FF090
:101A5000FF3A0021B7F1004F0DF143088DF8431014
:101A600024D002202B23002F01DA7F422D230A21CC
:101A7000021EA0F1010000DC5FB197FBF1FC97FBB7
:101A8000F1F201FB1C7C17460CF1300C08F801CD7B
:101A9000EEE7A8F1010003702188090501D5452171
:101AA00000E06521A0F1010800F8011C09980FA9C8
:101AB000A1EB0807FF1D00B10120411901EBEA70FD
:101AC000A1693844081A401EA0612078C00602D4DB
:101AD0002046FFF723FA099828B1D4E9012190475D
:101AE000206A401C20622078C00622D52046FFF7DD
:101AF00015FA1EE0002E04DBB34502DD01A8805D6F
:101B000000E03020D4E901219047206A401C206287
:101B1000761CAAF101005FEA000A0AD1FFF7FAF980
:101B2000C0680168405CD4E901219047206A401CEC
:101B30002062281EA5F10105DCDC07E0D4E90121C3
:101B400018F8010B9047206A401C2062381EA7F14C
:101B50000107F3DC2046FFF7F7F9032011B041E657
:101B60002DE9F04F04460D46D21D22F0070089B042
:101B7000D0E900974846394608F004F80246F80FC5
:101B800001D02D2307E02068810701D52B2302E037
:101B9000202101EAC0038DF820300BB1012000E0C4
:101BA0000020032A824601D0072A04DB294620466A
:101BB00000F036FB3FE12078800601D40D2500E0DF
:101BC000E569C7F30A560D2D49DA00214FEA175B84
:101BD00008464FF00000002F00F4400007DA00EB49
:101BE00080004FF4400100EBD07001EA60008115E5
:101BF000012901DD4FF0FF3100224FEA850CBCF1D5
:101C0000180F06D31346ACF118004FF08052C240B3
:101C100003E04FF4801323FA0CF30CF10C0CBCF12D
:101C2000200F04D3ACF1200C09FA0CF001E007FA04
:101C30000CF000294FF0004801DD18B90FE00ED17B
:101C400040450CD319EB02095F4121B9404502D14F
:101C50009F4329EA0209BBEB175F00D0761C20885E
:101C6000000502D57B48784402E07A487844193868
:101C700008AA302302F80A30037C0AF10101002E81
:101C80000AF1020A53546A4602DC4FF0300101E0C7
:101C90004FF031014FF001088DF8001002D0A6F28C
:101CA000FF3603E059EA470100D06B4E002D02DCFD
:101CB0002178090704D54FF002082E218DF8011074
:101CC000C44600210BE0C7F303433F01C35C491C3A
:101CD0006D1E02F80830052908F1010801DA002D0F
:101CE000F1DC00210CE000EB1973491C1B786D1E20
:101CF000082902F808304FEA091908F1010801DA49
:101D0000002DF0DC21688B0602D516E0A8F1010851
:101D1000E04505DD02EB080313F8013C302BF5D05C
:101D2000B8F1000F09DD02EB080313F8013C2E2B7C
:101D300003D1090701D4A8F10108002D05DD3E21DA
:101D400002F808106D1E08F10108407C002E02F810
:101D5000080008F1010804DA2D20764202F8080094
:101D600002E02B2002F808000A214FF47A70864224
:101D700008F101080BDB96FBF0F3303302F8083072
:101D800096FBF0F308F1010800FB136601E0642EF6
:101D90000CDB642096FBF0F3303302F8083096FB3E
:101DA000F0F308F1010800FB136601E00A2E06DBE0
:101DB00096FBF1F0303002F8080008F1010896FBBC
:101DC000F1F001FB1060303002F80800A16908F161
:101DD000010808EB050202EB0A00081AA06120784E
:101DE000C00602D42046FFF799F8216A08AE01EB3D
:101DF0000A00206204E0D4E9012116F8010B9047A3
:101E0000BAF1010AF7D22078C00602D52046FFF7C2
:101E100085F86E4609E016F8010B3E280FD0D4E98C
:101E200001219047206A401C2062B8F10108F2D2DB
:101E30002046FFF789F809B00320BDE8F08F206A3B
:101E40002844206203E0D4E90121302090476D1E30
:101E5000EBD3F8E75280000002FCFFFF01694A1C47
:101E600002610878704700B58FB0CDE901310021DB
:101E7000059105497944CDE9031011466846FFF7FD
:101E80002FFA0FB000BD0000E5FFFFFF10B543695A
:101E900013B1AFF3008001E0FFF779F8012010BD26
:101EA000127800F124010A7000224A700122EDE745
:101EB00011684FF0FF32E9E710B5436913B1AFF392
:101EC000008001E0FFF7EEF8012010BD128800F15C
:101ED000240182840022C2840122EDE711684FF0C0
:101EE000FF32E9E7007B00F08000704770B5C468FE
:101EF000A50713D0650211D4B2F5807F09D0B2F5E1
:101F0000007F06D0B2F5806F08D1012300F12401D3
:101F100006E05D1E6FF07F46B54201D3012070BD23
:101F20000161C361416024F470611143C16000200C
:101F300070BD00002DE9F0410C461646070047D061
:101F4000104600F06FF82078611C61280AD07228D2
:101F500002D077283CD102E00125002405E00225CB
:101F6000042402E0082448F2020511F8010B2B2892
:101F700006D0622809D011F8010C74280AD00BE0B1
:101F800045F0030544F00204EFE745F0040544F092
:101F90000104EAE744F010043846214600F006F94F
:101FA000411C15D00021316171604FF40071F56062
:101FB000F1617061200704D530460222002100F053
:101FC000D3FA306D40F0010030653046BDE8F08155
:101FD0000020FBE72DE9F0410D460646104C206D30
:101FE000C10704D0410804D020F00104F7E72246DD
:101FF0000EE05420FEF7D2FB07000ED0206D47F014
:1020000001010843542120653846FEF787FB3A4614
:1020100029463046BDE8F0418CE70020D6E70000B5
:10202000E80000202DE9F04704464FF0FF38002675
:10203000C568D4E90497A80718D0204600F050FBE3
:10204000384600F0BDF8002800DA4646280502D5DB
:102050004846FEF7D2FB4C212046FEF75FFB206D81
:1020600020F0010020653046BDE8F0874046FBE7E0
:102070002DE9F04116460C460546FEF701FF0368C0
:1020800093F80101012807D0FF2C12D8185D80B108
:1020900001202C70BDE8F081D3F8070132462146BB
:1020A00003F20713C7182846BC46BDE8F0410023D9
:1020B00060474FF0FF30EDE770B505460C460A204B
:1020C00000E06D1C00F0A5F835B128780028F8D1A3
:1020D00002E0641C00F09DF814B120780028F8D1CB
:1020E000BDE870400A2000F094B8000010B500214F
:1020F00002A0FFF7E1FF012010BD00005349474156
:102100004252543A2041626E6F726D616C20746568
:10211000726D696E6174696F6E00000010B500F039
:1021200023FBBDE81040FFF73BBA000000000000B1
:1021300030B44FF0013C50F8042B51F8043BCCFA7A
:1021400052F4D51A20D1FCB950F8042B51F8043BB5
:10215000CCFA52F4D51A17D1B4B950F8042B51F86F
:10216000043BCCFA52F4D51A0ED16CB950F8042BBA
:1021700051F8043BCCFA52F4D51A05D1002CDAD030
:1021800030BC4FF00000704729BAB1FA81F111F06C
:102190001801D1F120008440F2D1CA40CB4012F0A6
:1021A000FF0213F0FF0330BCD01A70470EB5CDE923
:1021B000000100F014FB029069460120ABBE0EBD89
:1021C00008B5694600900220ABBE08BD1FB58DE87A
:1021D000070069460520ABBE04B010BD1FB58DE8F1
:1021E0000F0069460620ABBEF6E708B569460090C9
:1021F0000920ABBE08BD1CB5CDE9000169460A2027
:10220000ABBE1CBD704708B5694600900C20ABBE44
:1022100008BD08B569468DF800000320ABBE08BDB7
:102220002DE9F0411F46044603260168072A01F400
:10223000006004DB08B116A505E016A503E008B1AF
:1022400015A500E015A521F010002060A069C01EB2
:10225000A0610FB1401EA0612046FEF75FFE4FB1A6
:10226000D4E9012138469047206A401C2062C01CF6
:10227000206206E0206AFAE7D4E9012115F8010B93
:102280009047761EF8D22046FEF75EFEBDE8F0814C
:102290004E414E006E616E00494E4600696E66000A
:1022A0002DE9F047814616468AB0354878440DC876
:1022B0008DE80D0032487844801C03AC0DC884E8DA
:1022C0000D0041F69B300844372190FBF1F290FB62
:1022D000F1F5A5F1800501FB12041B3C02D5644217
:1022E000012000E00020DFF898A080460027FA4493
:1022F000AAF1BE0A0EE0E0070AD03246684607EBB4
:10230000470101230AEB810107F0F3FA8DE807008A
:1023100064107F1C002CEED1194F7F44AE3F19E0B2
:10232000E80715D007EB04100DF1180A90E80E002D
:102330008AE80E00C068F04201D198190890324630
:10234000012306A903A807F0D4FA03AB83E807002A
:102350006D10641C002DE3D14FF001033246694635
:10236000B8F1000F03A802D007F0AEFA01E007F0C1
:10237000C0FAC9E90001C9F808200AB0BDE8F08731
:102380009C7A00002DE9F05F054617460C46C868A8
:1023900020F4201040F48000C860800602D5084672
:1023A00000F0C1F9E06841F282014FF0FF3A0140CC
:1023B000022903D0204600F053F9B9E000F420418F
:1023C000B1F5004F0FD1C00306D56168E06A8842BD
:1023D00000D80846606006E02069E06260606069DD
:1023E000FFF711FFA061A0680022EEB200280DDA0D
:1023F000E1688B050AD4C043A06041F490302260AC
:10240000E0606068411C61600670AAE0E068914687
:10241000226040F40050E060206978BB6069FFF7FB
:10242000E4FE04F124054FF00108A8B1A08910F4DE
:10243000407F08D0E069FEF7B1F9206118B1E0688B
:1024400040F4006017E0C4F81C802561E06820F4C7
:10245000407040F480600EE0E069FEF79FF90028CC
:102460002061F0D0E06840F4006010F4407FE0604C
:1024700002D140F48070E06020696060E068256906
:102480006FF0010BC1051ED56168E06A884200D873
:102490000846411B04D02246284600F0EBF8E8BB72
:1024A0001FB1E562C4E9015959E0681CE06260604F
:1024B000E069401EA060E06840F48030E060304693
:1024C0002E70BDE8F09F17B100F480320AE060681A
:1024D000411C61600670E0680A2E40F48030E060C4
:1024E00006D00022E16A6068814203D90B4602E00F
:1024F0000122F7E70346B4F80CC05B1B5FEA4C5CB3
:1025000004D4D4F81CC09C4500DD02B3814200D83D
:102510000146002BA1EB0008E56200E008E0C4E9F9
:10252000015907DD22461946284600F0A3F808B1F4
:102530005046C6E7B8F1000F09D0A169E5626560B1
:10254000A1EB0800A061E06840F01000E06047B136
:102550006168A069E562491B08446560A06158464E
:10256000AFE73046ADE700002DE9F04104461646DE
:102570000D464769007B80072ED03846FFF735FEB1
:1025800050BB3EB3012E02D0022E25D104E02046DE
:1025900000F004F905441DE03846FFF734FEE16819
:1025A000002841F01001E16005DA204600F058F8FB
:1025B0000120BDE8F081C9030BD56268E16A914250
:1025C00000D81146A26911442269891A814200DDAE
:1025D00008460544002D01DA0220EAE7E16A606856
:1025E000E268814206D29103E06203D522F4003111
:1025F00041F01002A6690027AE4213DCE16A814275
:1026000001D90B4600E0034603EB060C2369ACEB53
:10261000030CAC4506DD814201D98C4600E08446BE
:102620009C4505D1A760276042F02000A5620DE01F
:10263000AD1BE669AE1B8142A66000D90846C01AF0
:10264000281A20605819606022F0200003490840D1
:10265000E060002084F84870ABE70000BFCFD7FFF0
:10266000C16821F4001141F08001C1600021816046
:10267000016070472DE9F74F15460C464FF0FF3BC0
:102680003848D768D2F814A0074209D05046A96943
:10269000FFF7B1FD002819DB3248C0430740EF6067
:1026A0004FF000496FF000484C4501D3464600E02A
:1026B000264600993B4650463246FFF787FDA969FA
:1026C00020F00042B21A1144A96128B12846FFF750
:1026D000C7FF5846BDE8FE8FA41BE5D10020F9E7EF
:1026E00070B504460569C06A6168884200D808462A
:1026F000E16821F42011E160C90312D5A84208D095
:102700002246411B2846FFF7B5FF10B14FF0FF30BE
:1027100070BD0020E562C4E90150E06820F480301B
:10272000E060002070BD10B50446C06820F02000B5
:10273000E060A16AA06988420DD02046FFF7D0FF73
:10274000E06820F4405040F01000E060A06AA06112
:102750002069E062606044F24001E0688843E06024
:1027600010BD00001000020010B5014602A0FFF7E6
:10277000A3FC012010BD0000534947525452454468
:102780003A2052656469726563743A2063616E270A
:1027900074206F70656E3A200000000010B501468D
:1027A000C268900703D0900607D5886A0AE0FEF752
:1027B00007F901210160881E10BD8B694868184423
:1027C0000B69C01A91F848301BB191F84910401AB2
:1027D00010BD1103FCD50028FADD401E10BD10B558
:1027E000431C02E010F8011B71B18107FAD14FF0D0
:1027F000013202C88C1A8C4314EAC211F9D0C01AF3
:102800000A0603D0C01E10BDC01A10BD0A0401D0B4
:10281000801E10BD0902FCD0401E10BDFEE7000066
:1028200040F25060C2F2000000F0FEBB40F2B46023
:10283000C2F2000000F0F8BB40F2D870C2F2000013
:1028400000F066BF40F63800C2F2000000F060BF42
:1028500040F21870C2F2000000F05ABF40F6980033
:10286000C2F2000000F054BF40F27870C2F20000E3
:1028700000F04EBF7047000072B600BFFEE70000D8
:1028800084B040F2803940F28C3740F2983540F203
:10289000B83640F2513440F2004B40F2C8289FED68
:1028A000DBAA9FEDDBBA9FEDDBCA9FEDDBDAC2F25C
:1028B0000009C2F20007C2F20005C2F20006C2F22D
:1028C00000044FF0000AC2F2000BC2F20008B9EE99
:1028D000048AB3EE0E9A26E0C8F804A0C8F828A02F
:1028E000C8F808A0C8F82CA0C8F80CA0C8F830A0F8
:1028F000C8F810A0C8F834A0C8F814A0C8F838A0C8
:10290000C8F818A0C8F83CA0C8F81CA0C8F840A097
:10291000C8F820A0C8F844A0C8F824A0C8F848A067
:10292000012004F0A1FDD9F8000001680A6812072F
:102930000CD5CDF80CA00A6803924968039103995D
:10294000D9F80410B9F8082001F064FF386801686C
:102950000A6812070AD5CDF808A00A6802924968E9
:102960000291029979683A8901F054FF2868016858
:102970000A6812070AD5CDF804A00A6801924968CE
:102980000191019969682A8901F044FFB07A03280E
:1029900018D002280CD0012825D1F07A0138C1B214
:1029A000032920D240F20241C0F2030113E000BF2C
:1029B000F07A0138C1B2022915D840F60821C0F2D8
:1029C000090108E0F07A0138C1B203290BD240F2C4
:1029D0000571C0F20601C000C0B221FA00F0C1B218
:1029E000204604F055F9207802285FD0012803D052
:1029F000002840F035810FE0607809283FF66CAF81
:102A0000DFE810F00A000C01260026002600260050
:102A1000260084008400D20040F2D030C2F20000D0
:102A200080F814A040F2E830C2F2000080F814A050
:102A300040F21840C2F2000080F814A040F230408A
:102A4000C2F200008BF814A080F814A008E100BFC7
:102A500070884FF6EB72A0F20B4189B29142A8F850
:102A600000A00DD2A0F5806000EE100AB8EEC00AFA
:102A700098ED131A20EE0A0A30EE010A88ED130AC7
:102A8000B088A0F20B4189B2914280F0D180A0F5CC
:102A9000806000EE100AB8EEC00A98ED141A20EE1D
:102AA0000B0A30EE010A88ED140AC1E040F2D03082
:102AB000C2F2000080F814A040F2E830C2F2000038
:102AC00080F814A040F2184040F21062C2F20000F8
:102AD000C2F2000280F814A0106A40F23041C2F243
:102AE00000018BF814A081F814A0C8F84C0092EDF6
:102AF000010AF0EE480AB0EE491A04F009F8DBF8D2
:102B0000080088ED140AC8F85C00A9E070884FF648
:102B1000EB72A0F20B4189B291420DD2A0F5806018
:102B200000EE100AB8EEC00A98ED131A20EE0A0A59
:102B300030EE010A88ED130AB088A0F20B4189B289
:102B400091420DD2A0F5806000EE100AB8EEC00AE6
:102B500098ED141A20EE0B0A30EE010A88ED140AE3
:102B600004F092FCD8F8201000295DD0411AB1F58C
:102B70007A7F5DD3318940F28B6291424FF47A6162
:102B8000A8F8001054D3D8F8441049B1411AB1F54F
:102B9000FA7F4DD3D8F85C1001F5C031C8F85C104D
:102BA000C8F8440044E000BF04F06EFC717D11F0F1
:102BB000840F07D049B200294FF47A6148BF002141
:102BC000A8F80010B17C79B1414651F8482F52B1B4
:102BD000811A642908D3D8F85C1001F5C031C8F80F
:102BE0005C1008F144010860F07C40F24841002884
:102BF000C2F2000172D0487800286FD00B46D1E9AC
:102C0000010101221A70C8E9150111E08FC2F53CDB
:102C1000A69BC43B0AD7A33D8FC2F53D20460121A8
:102C200004F036F81CE000BFC8F82000A8F800A0A7
:102C300040F2D030C2F200000121017540F2E830CC
:102C4000C2F20000017540F21840C2F200000175A6
:102C500040F23040C2F200008BF81410017500BF42
:102C6000607801283FF43CAE0228C8F804A0C8F8F8
:102C700028A03FF439AE0328C8F808A0C8F82CA053
:102C80003FF436AE0428C8F80CA0C8F830A03FF4D2
:102C900033AE0528C8F810A0C8F834A03FF430AE11
:102CA0000628C8F814A0C8F838A03FF42DAE0728AD
:102CB000C8F818A0C8F83CA03FF42AAE0828C8F805
:102CC0001CA0C8F840A03FF427AE0928C8F820A0EF
:102CD000C8F844A07FF420AE22E600BFB08981F896
:102CE00000A060B100B200EE100AB8EEC00A98ED84
:102CF000131A20EE0D0A30EE010A88ED130AF0894E
:102D0000002895D000B200EE100AB8EEC00A98ED87
:102D1000141A20EE0C0AC4E690F82020013A012A89
:102D200008D8006800F114020020136819431160EC
:102D3000704700BF00F1240201204FF48021136886
:102D4000194311607047000010B590F820E0D0F8EA
:102D500000C0AEF1010EBEF1010FDCF808E011D8A1
:102D60001EF0E05F18D0CEF301640120A04018608F
:102D70008B68DBB1D1F804E0C86840EACE0040EAD5
:102D8000030E17E000F1240301204FF480211A689C
:102D90001143196010BD00BF00F1240301204FF45E
:102DA00000111A681143196010BD00BF0868CB6894
:102DB00043EA405E0CF5C07000EB0413240140F8B8
:102DC00004E00C69184640F8044F097D012903D13D
:102DD000016841F48071016050680121D860106879
:102DE000986000201A681143196010BD90F82020E7
:102DF000013A012A30D8B0B546F20060C4F20000B2
:102E0000026842F001020260026822F47C52026011
:102E1000D1F814E0CC694A6A0368012C43EA022223
:102E200002600EF01F024FF0010303FA02F2C369C1
:102E30006FEA020C23EA0203C36113D02CBBC36800
:102E400003EA0C03C360CB688C8844EA034300EBBD
:102E5000CE0423640B4611E0416A41F480214162B3
:102E600001207047C3681343C3600B688C8844EA31
:102E7000034300EBCE04236401F10C038C681B8830
:102E800043EA044300EBCE04636443688D6943EA7C
:102E90000204D1F810E0096A002D08BF03EA0C040F
:102EA00044604369BEF1000F43EA020408BF03EA2D
:102EB0000C040129446102D1C1691143C161016857
:102EC00021F0010101600020B0BD0000704700004A
:102ED000B0B590F82040013C012C7DD8D0F800C05E
:102EE00000290CBFDCF80C40DCF81040A4077DD0B2
:102EF0000CF5D8754FEA011C55F80C4014F0040489
:102F0000946055F80CE005EB011C19BF4FEADE0593
:102F100055604FEA5E551560DCF80050E64605F056
:102F20000205D5605EF8044F24075ABFDEF8004062
:102F300004F00F0408241461DEF800400029C4F3F3
:102F400007249461DEF800504FEA15455561DCF81E
:102F500008201A70026802EB0112D2F8B8214FEA79
:102F600012225A70026802EB0112D2F8B8214FEA1D
:102F700012429A70026802EB0112D2F8B8214FEAAD
:102F80001262DA70026802EB0112D2F8BC211A71E7
:102F9000026802EB0112D2F8BC214FEA12225A71E8
:102FA000026802EB0112D2F8BC214FEA12429A7178
:102FB000026802EB0112D2F8BC214FEA1262DA7108
:102FC00000680CBF00F10C0100F11001002020226C
:102FD0000B681A430A60B0BD00F1240101204FF4D0
:102FE00080220B681A430A60B0BD00BF00F12401C3
:102FF00001204FF400120B681A430A60B0BD0000B4
:1030000090F820100139012984BF00207047006822
:10301000816882688068C1F38061C2F3C062114434
:10302000C0F30070084470472DE9F04F81B00446AA
:1030300000684669D0F804908768D0F80CB0D0F8E2
:1030400010A0D0F81880F10704D1002530071CD457
:1030500023E000BFF9070FD00121BA07816007D430
:10306000780700F1A780380700F1AE80342000E037
:1030700028202158204688470025F80500F1868041
:10308000F80300F1AA80300707D51BF0100004D028
:10309000206845F400751021C160700708D51BF049
:1030A000080005D02068616C0822C260204688476D
:1030B000B00706D52068C068800702D0216C204682
:1030C0008847700607D51AF0100004D0206845F430
:1030D000806510210161B00608D51AF0080005D0FE
:1030E0002068E16C0822026120468847F00606D578
:1030F00020680069800702D0A16C20468847B00391
:1031000008D519F0100005D02068216D102242600A
:1031100020468847F00308D519F0080005D020683C
:10312000616D0822426020468847300440F190805B
:103130005FEA497040F1898006F4807008EA102047
:1031400028435FEA8871014648BF41F00201B20599
:1031500058BF01465FEA48700D4648BF45F0040578
:10316000700558BF0D46300540F16F8018F07000B3
:103170006BD010380009052862D8DFE800F0035B47
:1031800053574F5F45F008055AE000BF20684FF4E1
:103190008071BA05816005D478050FD4380517D43D
:1031A000A16B00E0E16A20468847F8037FF56BAF2A
:1031B00013E000BF4FF400655FE700BF05F5005561
:1031C000F8037FF560AF08E04FF4805555E700BF86
:1031D00005F58045F8037FF556AF20684FF4803140
:1031E000BA03816006D478030CD4380310D4E16BA1
:1031F00001E000BF216B2046884730073FF545AF0F
:103200004BE700BF05F5004530073FF53EAF44E70B
:1032100005F5803530073FF538AF3EE745F08005CE
:103220000EE000BF45F020050AE000BF45F0400574
:1032300006E000BF45F0100502E000BF45F48075D0
:103240002068816921F0700181612068042141605A
:1032500055B1606AA16D40EA05022046626201B084
:10326000BDE8F04F084700BF01B0BDE8F08F000097
:10327000002804BF012070472DE9F041044690F872
:103280002000002849D143F2D15143F2456543F271
:103290004D6243F2D558C0F60001C0F60005C0F6F5
:1032A000000243F2556343F25160C0F60008C0F6D5
:1032B000000343F2416643F24967C0F60000C4E9E7
:1032C0000A5204F130026164E16D43F2DD5C43F2C5
:1032D000D95EC0F60006C0F60007C8C2C4E90F08F0
:1032E00043F2E15043F2596242F6CD63C0F6000C5E
:1032F000C0F6000EC0F60000C0F60002C0F60003E3
:10330000C4E912CE20656265A36521B943F2F931A3
:10331000C0F60001E165204688472068016841F059
:103320000101016000F0AAFC054600BF2068416869
:10333000C90705D100F0A2FC401B0B28F6D310E012
:10334000016821F00201016000F098FC054600BF11
:103350002068416889070FD500F090FC401B0B28BE
:10336000F6D3606A052140F400306062012084F8E1
:103370002010BDE8F08100BF217E0268012922F003
:10338000800208BF80320260617E0268012922F05B
:10339000400208BF40320260A17E0268012922F08B
:1033A000200208BF20320260E17E0268012922F07B
:1033B000100218BF10320260217F0268012922F03A
:1033C000080208BF08320260617F0268012922F00A
:1033D000040208BF04320260271D8ECF66691A43BB
:1033E0003A43324301391143C16100200121606237
:1033F00084F82010BDE8F08110B586B0006846F66C
:103400000002C4F2000200219042CDE90411CDE98E
:103410000211019134D046F20041C4F20001884209
:1034200077D140F23C61C2F200010A6843F64000E5
:10343000C4F20200531C0B6052B9002100910168D4
:1034400041F000710160016801F000710091009984
:103450000021009150F8101C142441F0080140F89C
:10346000101C50F8100C032100F008000090009888
:1034700040F20040C4F2020000F5006035E000BFF9
:1034800043F64000C4F202000091016841F08061FF
:103490000160016801F080610091009940F23C6197
:1034A000C2F200010A68531C0B6052B9002100915E
:1034B000016841F000710160016801F00071009144
:1034C00000990021009150F8101C402441F00201A5
:1034D00040F8101C50F8100C602100F00200009021
:1034E000009840F20040C4F20200019102210291D2
:1034F00000210391032104910921059101A900F004
:10350000EDFA20460021002200F076FC204600F073
:1035100061FC06B010BD0000BAB190F82030012B5C
:1035200010D10E2911D8DFE801F0093F33372743C6
:10353000473B4F2F4B232B1B1F0000BF82620020F5
:10354000704700BF90F8203033B1416A41F48001E8
:1035500041620120704700BF0E2905D00D29F4D12A
:10356000C2650020704700BF02660020704700BFA0
:1035700042650020704700BF82630020704700BF93
:1035800082650020704700BFC2640020704700BF02
:1035900002630020704700BF42630020704700BFF5
:1035A00042640020704700BFC2620020704700BF25
:1035B000C2630020704700BF02640020704700BF54
:1035C00002650020704700BF826400207047000041
:1035D000704700007047000070470000704700000F
:1035E00070470000B0B5044690F8200001281DD1B6
:1035F000022084F820002068016821F001010160A8
:1036000000F03CFB054600BF20684068C00713D0AF
:1036100000F034FB401B0B28F6D3606A40F4003006
:103620006062052084F820000120B0BD606A40F48B
:10363000002060620120B0BD00206062B0BD0000CB
:10364000704700007047000070470000704700009E
:1036500070470000704700007047000070B5866D2D
:10366000044600F00BFB94F83510022928D10546DA
:103670002068216C026822F016020260426922F082
:103680008002426109B9A16C19B1016821F00801F9
:103690000160016821F00101016000BF206800683D
:1036A000C00715D000F0EAFA401B0628F6D3202008
:1036B0006065032084F83500002184F8341070BD63
:1036C000802060650120002184F8341070BD00BFA7
:1036D000E06D3F2101FA00F0B060012084F8350070
:1036E0000020002184F8341070BD000090F83510DF
:1036F000022909D1052180F835100068016821F000
:103700000101016000207047802141650120704760
:10371000F0B581B00021009140F26401C2F20001D5
:103720000B68D0E9166148F2B51537680822C1F672
:103730004E358A403A42A3FB05350CD003681C681D
:10374000640708D51C6824F004041C60B260426D54
:1037500042F00102426501228A403A4208D00368E1
:103760005B691B0604D5B260426D42F002024265FD
:1037700004228A403A4208D003681B689B0704D59C
:10378000B260426D42F00402426510228A403A4221
:1037900019D001680B681B0715D5B2600B680A6861
:1037A0005B0309D4D20509D40A6822F008020A6032
:1037B000016C29B907E000BF110341D4016C11B1BC
:1037C000044688472046C26D202101FA02F33B429D
:1037D00043D001680F68FF063FD5B36090F835709D
:1037E0000B68052F1CD123F016030B604B6923F0E7
:1037F00080034B61036C0BB9836C1BB10B6823F026
:1038000008030B603F219140B160012180F8351021
:10381000016D0022002980F8342054D158E000BF07
:103820000A685B0310D4D20512D40A6822F0100291
:103830000A60012180F83510002180F8341007E07B
:10384000816C0029BCD1BEE7110301D4416C00E0BA
:10385000C16B11B1044688472046416DC1B3416D2B
:10386000C9072ED0052180F835100168AA0A0B6817
:1038700023F001030B60009B0133934200931AD89D
:103880000B68DB0717D0009B01339342009312D8DB
:103890000B68DB070FD0009B0133934200930AD8DB
:1038A0000B68DB0707D0009B01339342009302D8DB
:1038B0000B68DB07DFD1012180F83510002180F88B
:1038C0003410C16C21B101B0BDE8F040084700BF21
:1038D00001B0F0BD2DE9F041044600F0CFF9ECB1A4
:1038E0000546022084F835000020216884F8340061
:1038F000086820F00100086021680868C00711D03E
:1039000000F0BCF9401B0528F6D90325202303202D
:10391000636584F83550BDE8F08100BF0120BDE843
:10392000F08100BF086848F23F02CFF21002D4E9EC
:10393000013500EA020C04F10C0898E8C10143EAE1
:103940000C032B431843D4E9072E3043384310436C
:10395000626A40EA0E00042A40EA08031CD1206B88
:10396000D4E90A2E40EA0E00184308604869BEF107
:10397000000F20F0030040EA020040F0040C11D0D8
:10398000B8F5005F36D0B8F1000F45D1022A46D015
:10399000012A3BD032B942E00B60486920F00700B1
:1039A00040EA020C01F0F8004AF6AB221038CAF6E1
:1039B000AA22A0FB02231A0949F67C53C1F814C0BD
:1039C000C0F600039A5C40F2FF335F284FF03F00DF
:1039D00021EA030100FA02F088BF0431C4E916129B
:1039E0008860002301250020636584F83550BDE818
:1039F000F08100BF032AD5D8012540230120DFE84C
:103A000002F0030E030500BF82E700BFAEF1C070F5
:103A1000B0FA80F0400904E0032A04D3C2D1CEF307
:103A200000600028BED0012540230120636584F892
:103A30003550BDE8F081000090F834C0BCF1010FB2
:103A400004BF0220704770B54FF0010C80F834C0FD
:103A5000D0F858E090F835C0BCF1010F38D14FF0E4
:103A6000020C80F835C04FF0000CC0F854C0D0F8FC
:103A700000C08468056CC06DDCF80060402C26F442
:103A80008026CCF80060CCF804300B4604BF134607
:103A90000A463F2101FA00F0CCF80830CCF80C209F
:103AA000CEF80800DCF8000040F01600CCF800006A
:103AB0002DB1DCF8000040F00800CCF80000DCF884
:103AC000000040F00100CCF80000002070BD00BFF5
:103AD000002180F83410022070BD00002DE9F04F65
:103AE00083B000F1200200F13E4741F6004500920C
:103AF00007F1FF77C4F2020508224FEAB726A84271
:103B000008BF072200254FF000084FF00009072EDC
:103B100038BF4FEAB72201920AE000BF09F101095C
:103B200008F10208B9F1100F05F1040500F0A280B8
:103B30000F68012202FA09FE17EA0E0AEED0D1F848
:103B400004C003220CF003077E1E02FA08F4012EC3
:103B50006FEA040B12D88468CE6804EA0B0406FAF4
:103B600008F634438460446824EA0E06CCF300145B
:103B700004FA09F42643466004E000BF032F01D194
:103B800003271EE0C6688C6806EA0B0604FA08F4F0
:103B90002643022FC66014D16FF00302009E02EA92
:103BA000590756F807C005F01C040F220B69A24004
:103BB0002CEA0202A3401A43F251D1F804C00CF0DF
:103BC0000307026807FA08F302EA0B021A431CF41F
:103BD000403F0260A2D0002243F644030292C4F2A6
:103BE00002031A6843F6004442F480421A601A68DD
:103BF000C4F2010402F480420292029A29F0030204
:103C00004FF6084C2244CFF6FF7C52F80C3005F0FA
:103C10000C070F26BE40B343019E06FA07F73B434D
:103C200042F80C30A2684B6842EA0A0743F60C4C93
:103C3000DE0258BF22EA0A07A760C4F2010CDCF8D2
:103C400000209E0242EA0A0758BF22EA0A07CCF87F
:103C5000007062689E0342EA0A0758BF22EA0A0718
:103C600067602268DB0342EA0A0758BF22EA0A07B4
:103C7000276053E703B0BDE8F08F000044F64040F2
:103C8000C2F200000068704740F20C0044F6404168
:103C9000C2F20000C2F2000100780A681044086015
:103CA0007047000080B543F60040C4F2020001688E
:103CB00041F400710160016841F4806101600168B4
:103CC00041F480710160032000F0C2F80F2000F081
:103CD00005F800F05DF8002080BD000070B586B0EA
:103CE000002543F640010195C4F202010A6804462A
:103CF00042F020020A60096801A801F02001019148
:103D00000199694600F066F9049E002E18BF01264D
:103D100000F080F94DF68361B040C4F21B31A0FB86
:103D200001014FF0FF3000EB914140F6401041F2AD
:103D30000042C2F20000C4F2000240F2E733C0E9E0
:103D40000021C0E902530561856100F0F9FB08B16B
:103D500006B070BD40F64010C2F2000000F042FC18
:103D60000028F5D1372000F035F80F2C0CD837207B
:103D70002146002200F040F840F210010020C2F27B
:103D800000010C6006B070BD012006B070BD0000DF
:103D900082B0002043F640010190C4F202014A685B
:103DA00042F480424A604A6802F480420192019AD9
:103DB00000900868002240F08050086008680F21D9
:103DC00000F08050009000986FF0010002B000F009
:103DD00013B80000002848BF704700F01F010122FF
:103DE00002FA01F11C2202EAD0004EF20012CEF2D9
:103DF000000281507047000010B54EF60C5CCEF208
:103E0000000CDCF80030C3F3022E8EF00704042C03
:103E100028BF0424BEF103034FF0FF3E0EFA04F462
:103E200038BF0023A14399400EFA03F39A4311438C
:103E300000F00F0200F160430901043A03F5644306
:103E40006244002848BF02F10C03197010BD000045
:103E50004EF60C51CEF200010A684FF6FF031A40ED
:103E600060F30A2242F0806040F0FD700860704705
:103E7000002804BF012070472DE9F04143F60808EF
:103E8000C4F202080446D8F8F8030D4600F0070013
:103E9000884207D288F8F853D8F8F80300F00700F2
:103EA000A84277D12068810717D5410705D5D8F8F2
:103EB000001041F4E051C8F80010010705D5D8F80A
:103EC000001041F46041C8F80010D8F80010A26852
:103ED00021F0F0011143C8F80010C00740D1D8F814
:103EE000F80300F00700A84207D988F8F853D8F87B
:103EF000F80300F00700A8424CD12068410707D51D
:103F0000D8F80010E26821F4E0511143C8F800101D
:103F1000000708D5D8F80000216920F4604040EA85
:103F2000C100C8F8000000F09DF8D8F8001049F66C
:103F30006452C1F30311C0F60002515C40F2640206
:103F400020FA01F140F21000C2F200000068C2F253
:103F500000021160FFF7C2FE0020BDE8F08100BF43
:103F60006068811E022907D258F8081C89015CBFCD
:103F70000120BDE8F08111E0012807D158F8081CA4
:103F800089035CBF0120BDE8F08107E058F8081CF8
:103F9000890703D40120BDE8F08100BFD8F80010E4
:103FA00021F003010843C8F80000FFF767FE06464A
:103FB00041F28837D8F80000616800F00C00B0EBDF
:103FC000810F8CD0FFF75AFE801BB842F2D9032034
:103FD000BDE8F0810F22026043F60802C4F202023B
:103FE000136803F003034360136803F0F003836076
:103FF000136803F4E053C360D2F800C04FF4E053F9
:1040000003EADC030361D2F8F80300F0070008605C
:104010007047000040F2640043F60801C2F200005D
:10402000C4F202010068096849F67452C1F38221A2
:10403000C0F60002515CC8407047000040F26400C6
:1040400043F60801C2F20000C4F2020100680968E8
:1040500049F67452C1F34231C0F60002515CC840C7
:104060007047000010B543F60404C4F2020460680F
:1040700000F00C0008280BD0042819BF42F20040C1
:10408000C0F2F40041F60030C0F2B70010BD00BF2E
:10409000206821682368490241F60031C0F2B70167
:1040A00000F03F02C3F388105CBF42F20041C0F24F
:1040B000F401A1FB00010023FCF74EF92168022264
:1040C000C1F3014102EB4101B0FBF1F010BD000072
:1040D000002804BF012070472DE9F04182B004465A
:1040E000007843F60006C007C4F202060CD0B068A0
:1040F00000F00C00042840F081803068800303D574
:104100006068002800F06881207880071BD5B068BF
:1041100010F00C0F09D0B06800F00C00082840F037
:1041200087807068400200F183803068800703D583
:10413000E068012840F050813068216920F0F800E3
:1041400040EAC10030602078000713D4207840078F
:104150002AD4A569002D00F03A81B06800F00C0067
:10416000082840F0A580012D40F00E81012002B00A
:10417000BDE8F0816069002800F082800020C4F270
:1041800047200121C0F8801EFFF778FD054600BFDB
:10419000706F8007DAD4FFF771FD401B0228F7D952
:1041A000032002B0BDE8F081306C5FEAC0080AD499
:1041B00000200190306C40F080503064306C00F092
:1041C00080500190019847F20007C4F20007386858
:1041D000C00547D4386840F480703860FFF74EFD62
:1041E000054600BF3868C0053CD4FFF747FD401BBB
:1041F0000228F7D9032002B0BDE8F081B06800F0D2
:104200000C00082803D1706840023FF576AF616862
:104210003068B1F5803F07D0B1F5A02F40F09A800B
:1042200040F480203060306840F4803030609AE0A4
:10423000E068002840F20000C4F247205CD0012171
:104240000160FFF71BFD0546306880073FF574AF3E
:10425000FFF714FD401B0228F6D9032002B0BDE889
:10426000F08100BFA168306F012905D0052955D123
:1042700040F004003067306F40F00100306756E0D6
:104280000020C4F247200021C0F8801EFFF7F6FC92
:10429000054600BF706F80077FF558AFFFF7EEFC53
:1042A000401B0228F6D9032002B0BDE8F08100BF10
:1042B0000027C4F2472700203866FFF7DFFC022DF5
:1042C00005460DD13068800140F18A80FFF7D6FCA9
:1042D000401B02284FF00300F4D902B0BDE8F08182
:1042E0003068800173D5FFF7C9FC401B02284FF0EE
:1042F0000300F5D9F1E700BF00210160FFF7BEFC24
:10430000054600BF306880077FF51DAFFFF7B6FC9C
:10431000401B02284FF00300F4D9DEE720F0010033
:104320003067306F002920F0040030677AD0FFF743
:10433000A5FC054641F28837306F800700F1848084
:10434000FFF79CFC401BB842F6D9032002B0BDE841
:10435000F08100BF20F4803030603068002920F404
:10436000802030607AD0FFF789FC054630688003F2
:104370003FF5CAAEFFF782FC401B6428F6D9032044
:1043800002B0BDE8F08100BF7068E16900F480020E
:104390008A4221D1216A00F03F028A421CD147F6AD
:1043A000C071626A0140B1EB821F15D1A16A4FF65C
:1043B000FF73C903994300F44032A1F580318A426A
:1043C0000AD1E16A00F07060B0EB016F04D1002007
:1043D00002B0BDE8F08100BF012002B0BDE8F0816D
:1043E00004F11C052FCD084340EA8210D9034FF693
:1043F000FF729143A1F5803140EA05600843706087
:1044000001203866FFF73AFC044600BF306880019F
:10441000DDD4FFF733FC001B02284FF00300F5D971
:104420005BE700BFFFF72AFC054641F2883700BF73
:10443000306F800708D5FFF721FC401BB8424FF0D2
:104440000300F5D949E700BFB8F1000F3FF581AE91
:10445000306C20F0805030647BE600BFFFF70EFC2C
:10446000054600BF306880037FF54EAEFFF706FCBF
:10447000401B64284FF00300F4D92EE7704700007A
:104480007047000090F83C20012A4FF0020254D0FF
:1044900010B580F83D200268D2F804E0D2F808C0D8
:1044A0000C682EF07003234341F2FF74C4F2000441
:1044B000A24253600EDC40F2FF73C4F200039A4242
:1044C00016DCB2F1804F2BD040F20043C4F200035F
:1044D00024E000BF40F2FF33C4F201039A4213DC30
:1044E00041F60003C4F200039A4219D0002313E0FE
:1044F00040F60003C4F200039A4211D040F6004394
:10450000C4F200030AE000BF44F20003C4F2010356
:104510009A4205D040F20043C4F201039A4204D10A
:1045200049682CF08003194391600121002280F832
:104530003D1080F83C20BDE8104010467047000058
:10454000002804BF0120704710B5044690F83D00D4
:1045500028B9002084F83C00204600F01FF8022013
:1045600084F83D002068211D01F03CF9012084F809
:10457000460084F83E0084F83F0084F8400084F848
:10458000410084F8420084F8430084F8440084F831
:10459000450084F83D00002010BD0000006841F295
:1045A0000001C4F20001884218BF704780B582B094
:1045B0000020019043F64000C4F20200016800228E
:1045C00041F0100101600068002100F0100001902E
:1045D00001983620FFF710FC362002B0BDE880407D
:1045E000FFF7F8BB90F83D1001291CBF0120704770
:1045F000022180F83D10006841F2FF72C168C4F2E8
:104600000002904241F00101C1600DDC40F2FF71F7
:10461000C4F20001884215DCB0F1804F2AD040F28C
:104620000041C4F2000123E040F2FF31C4F2010175
:10463000884213DC41F60001C4F20001884219D01F
:10464000002113E040F60001C4F20001884211D0BD
:1046500040F60041C4F200010AE000BF44F200014C
:10466000C4F20101884205D040F20041C4F20101C8
:10467000884206D1816801F00701062904BF0020A5
:104680007047016841F0010101600020704700009F
:104690007047000070B504460068C5680669B10738
:1046A00016D515F0020113D06FF00201016101214E
:1046B00021778069800703D02046FFF7E9FF05E0F6
:1046C000204600F08FF8204600F08EF8002020777A
:1046D000700719D515F0040016D020686FF004019A
:1046E000016102212177806910F4407F04D02046C7
:1046F000FFF7CEFF06E000BF204600F073F820462B
:1047000000F072F800202077300717D515F0080068
:1047100014D020686FF00801016104212177C0697D
:10472000800703D02046FFF7B3FF05E0204600F0E6
:1047300059F8204600F058F800202077F00619D5E7
:1047400015F0100016D020686FF0100101610821EB
:104750002177C06910F4407F04D02046FFF798FF0E
:1047600006E000BF204600F03DF8204600F03CF88F
:1047700000202077F00718BF15F0010002D13006A5
:1047800009D412E020686FF001010161204600F0B9
:104790002DF8300609D515F0800006D020686FF09E
:1047A000800101612046FFF769FE700609D515F00A
:1047B000400006D020686FF040010161204600F003
:1047C00027F8B00658BF70BD15F0200008D021684A
:1047D0006FF0200220460A61BDE87040FFF750BE2E
:1047E00070BD00007047000070470000006841F293
:1047F0000001C4F20001884208D041F20041C4F235
:104800000001884218BF7047FFF73EBA01F08CB82C
:104810007047000090F84230202B0BD194460A4696
:1048200000294FF0010118BFBCF1000F06D1084666
:10483000704700BF02210846704700BFB0B582B084
:10484000012101630025222145638262A0F82CC06A
:10485000456480F84210C36B45F68D5E45F6ED6405
:10486000C0F6000EC0F600040168C3E90FE445F687
:104870001144C0F60004C3E9134504310446184648
:104880006346FFF7D9F80195216820460A6801922E
:10489000496801910199216931B300BF016851E86C
:1048A000031F026841F4807142E80313E3B1016819
:1048B00051E8031F026841F4807142E803139BB181
:1048C000016851E8031F026841F4807142E8031354
:1048D00053B1016851E8031F026841F4807142E856
:1048E0000313002BDAD100BF016851E8051F0268ED
:1048F00041F0010142E80513BBB3016851E8051F0F
:10490000026841F0010142E8051373B3016851E800
:10491000051F026841F0010142E805132BB301684D
:1049200051E8051F026841F0010142E80513002B20
:10493000DAD11AE0016851E8051F026841F0400130
:1049400042E80513DBB1016851E8051F026841F038
:10495000400142E8051393B1016851E8051F026860
:1049600041F0400142E805134BB1016851E8051FD1
:10497000026841F0400142E80513002BDAD1016BD7
:10498000012933D10021009101680A680092496829
:1049900000910099016851E8031F026841F010017D
:1049A00042E80313DBB1016851E8031F026841F0DC
:1049B000100142E8031393B1016851E8031F026834
:1049C00041F0100142E803134BB1016851E8031FA5
:1049D000026841F0100142E80313002BDAD10021F4
:1049E00002B0BDE8B0400846704700BF012102B0E8
:1049F000BDE8B040084670477047000070470000AF
:104A0000704700007047000070470000B0B582B0EA
:104A100001680A68CC684B6902F02F05202D04F06C
:104A2000200505D125B102B0BDE8B04001F06ABA59
:104A30005FEA027C1EBF03F0010E04F4907313EBD7
:104A40000E0341D1036BD50618D5012B16D114F0F6
:104A5000100313D0002201920A6801924A68019261
:104A6000019A496949064BD4818DC28DC38D002BB3
:104A700018BF914240F0F68102B0B0BD13062DD5AB
:104A800014F080032AD090F84120212AF4D18268C2
:104A9000B2F5805F03D10269002A00F06982026AE0
:104AA000531C036212784A60C28C013A1304C28418
:104AB000E2D1C86820F08000C860C86840F04000BB
:104AC000C86002B0B0BD00BFD30718BF14F4807334
:104AD00040F0D080530700F1D380D8E05206CBD508
:104AE00014F04002C8D0CA6822F04002CA602021F7
:104AF00080F84110C16C02B0BDE8B040084700BF6B
:104B0000C16B0A68526893B2002BB5D0858DAB4259
:104B1000B2D2C285C969B1F5807F00F0A08001687A
:104B200051E8031F026821F4807142E80313DBB1EE
:104B3000016851E8031F026821F4807142E8031301
:104B400093B1016851E8031F026821F4807142E8C3
:104B500003134BB1016851E8031F026821F480710F
:104B600042E80313002BDAD1016851E8051F0268FF
:104B700021F0010142E80513BBB3016851E8051FAC
:104B8000026821F0010142E8051373B3016851E89E
:104B9000051F026821F0010142E805132BB30168EB
:104BA00051E8051F026821F0010142E80513002BBE
:104BB000DAD11AE0016851E8051F026821F04001CE
:104BC00042E80513DBB1016851E8051F026821F0D6
:104BD000400142E8051393B1016851E8051F0268DE
:104BE00021F0400142E805134BB1016851E8051F6F
:104BF000026821F0400142E80513002BDAD12021A0
:104C000080F8421000210163016851E8031F026827
:104C100021F0100142E80313DBB1016851E8031FE2
:104C2000026821F0100142E8031393B1016851E8D2
:104C3000031F026821F0100142E803134BB1016821
:104C400051E8031F026821F0100142E80313002B12
:104C5000DAD1C16B04460846FEF700FD204602216A
:104C60004163C26E818DC38DC91A89B202B0BDE89D
:104C7000B0401047436C43F001034364530706D52B
:104C8000BEF1000F03D0436C43F00203436493076B
:104C900006D5BEF1000F03D0436C43F00403436418
:104CA000BCF1000F06D55EEA050303D0436C43F068
:104CB00008034364436C002B3FF4DEAE920605D537
:104CC00025B1044601F01EF9216820464969426C6D
:104CD00001F0400102F00802891800F0BB8000BF1B
:104CE000016851E8031F026821F4907142E8031340
:104CF000BBB3016851E8031F026821F4907142E8D8
:104D0000031373B3016851E8031F026821F4907123
:104D100042E803132BB3016851E8031F026821F432
:104D2000907142E80313002BDAD11AE0016851E8D0
:104D3000051F026821F0010142E80513DBB101689B
:104D400051E8051F026821F0010142E8051393B103
:104D5000016851E8051F026821F0010142E80513CE
:104D60004BB1016851E8051F026821F0010142E8DA
:104D70000513002BDAD1016B012924D1016851E818
:104D8000031F026821F0100142E80313DBB1016840
:104D900051E8031F026821F0100142E8031393B1A8
:104DA000016851E8031F026821F0100142E8031373
:104DB0004BB1016851E8031F026821F0100142E87D
:104DC0000313002BDAD1202180F842100021016367
:104DD00001684969490640F1C580016851E8051F2D
:104DE000026821F0400142E80513DBB1016851E897
:104DF000051F026821F0400142E8051393B10168E4
:104E000051E8051F026821F0400142E805134BB14B
:104E1000016851E8051F026821F0400142E80513CE
:104E2000002BDAD1C16B002900F09C8045F60542C9
:104E3000C0F60002044608460A65FEF757FC002843
:104E40003FF41AAEE06B2146016D02B0BDE8B04000
:104E5000084700BF816D044688470020606402B0A7
:104E6000B0BD00BF891A00BF026852E8032F036873
:104E700022F4907243E80325BDB3026852E8032F81
:104E8000036822F4907243E8032575B3026852E880
:104E9000032F036822F4907243E803252DB30268C0
:104EA00052E8032F036822F4907243E80325002D93
:104EB000DAD11AE0026852E8052F036822F00102F5
:104EC00043E80525DDB1026852E8052F036822F0AA
:104ED000010243E8052595B1026852E8052F0368F1
:104EE00022F0010243E805254DB1026852E8052F82
:104EF000036822F0010243E80525002DDAD12022C3
:104F000080F8422000220263026852E8032F0368FF
:104F100022F0100243E80325DDB1026852E8032FB6
:104F2000036822F0100243E8032595B1026852E8B5
:104F3000032F036822F0100243E803254DB10268F5
:104F400052E8032F036822F0100243E80325002DE6
:104F5000DAD102224263C26E89B202B0BDE8B0402B
:104F6000104700BF816D02B0BDE8B040084700BFE8
:104F7000026A32F8023B6FF35F234B60026293E5F3
:104F8000002804BF0120704770B5044690F8410026
:104F9000D0BB002045F2593184F8400045F25D3025
:104FA000C0F60001C0F60000E164216F45F2553201
:104FB00045F2513344F6092C44F6FD1E44F605250E
:104FC00044F60126A06444F6F910C0F60002C0F6CB
:104FD0000003C0F6000CC0F6000EC0F60005C0F6D7
:104FE0000006C0F6000022656365C4F858C0C4F826
:104FF0005CE0C4E91856E06621B945F24D01C0F6FF
:105000000001216720468847242084F84100206859
:10501000C16821F40051C160204600F0F3FF206810
:10502000016921F490410161416921F02A01416146
:10503000C16841F40051C16000202021606484F8FF
:10504000411084F84210606370BD00002DE9F04FFC
:1050500087B00446006844F60001C4F2000100264F
:105060008842CDE90566CDE90366029600F0F68038
:1050700041F20041C4F20101884200F0878041F210
:105080000001C4F20101884240F03C81002743F650
:1050900030000197C4F202004169002541F010017F
:1050A00041614169C4F2020501F0100101910199C9
:1050B0000197016802AE41F002010160016846F209
:1050C000280801F0020101910199019701684FF050
:1050D000020941F00101016000684FF0030A00F08D
:1050E000010001900198802002904FF0070B05F518
:1050F00080603146C4F20208CDE90397CDF814A0D0
:10510000CDF818B0FEF7EAFC4FF40070CDE90209C3
:1051100004A880E8800C28463146FEF7DFFC40F208
:10512000187508F58360C2F200054FF000664FF471
:10513000806985E8C1002846C5E90379C5E9057796
:10514000C5E907776F62FEF7C5FB002818BFFDF7BA
:1051500093FBE563AC6340F2787508F59260C2F2A8
:1051600000054021C5E9000605F1080080E882023B
:105170002846C5E90577C5E907776F62FEF7AAFB00
:10518000252600284FF0380765D1B1E043F63000FE
:105190000196C4F20200416946F2280841F020015C
:1051A00041614169C4F2020801F0200101910199B5
:1051B0000196016841F040010160006802A900F019
:1051C0004000019001984FF4844002900220CDE904
:1051D000030603200590082006900020C4F2020078
:1051E00000F5C050FEF77AFC40F6380508F58060FF
:1051F000C2F200054FF020674FF48069C5E900074F
:105200002846C5E90266C5E90496C5E90666C5E90A
:105210000866FEF75FFB002818BFFDF72DFBE5636E
:10522000AC6340F6980508F58F60C2F20005402196
:10523000C5E9000705F1080080E842022846C5E9F3
:105240000566C5E907666E62FEF744FB472600283F
:105250004FF038074CD0FDF70FFB49E043F6300024
:105260000196C4F20200016941F4802101610169E3
:1052700001F48021019101990196016841F0040136
:105280000160006802A900F00400019001984FF449
:10529000406002900220CDE903060320059007201C
:1052A00006900020C4F2020000F50060FEF716FC34
:1052B00040F2D87546F22800C2F20005C4F202009E
:1052C0004FF000614FF4806285E843002846C5E94D
:1052D0000362C5E90566C5E907666E62FEF7FAFA7C
:1052E00000284FF027064FF03C0718BFFDF7C4FA1F
:1052F000304600210022E551AC63FEF77DFD3046CB
:10530000FEF768FD07B0BDE8F08F000081B190F8AE
:105310004020012A04BF0220704790F84120202A33
:105320000CD1C1660021002280F840200846704759
:10533000416C41F02001416401207047416C41F013
:10534000200141640121002280F840200846704776
:105350007047000070470000704700007047000071
:10536000FEE7000080B540F2506046F20041C2F214
:105370000000C4F20001062200234FF4802C80E8D4
:105380000E000121C0E9033C4361C0F81730A0F8CA
:105390001B104377FDF76CFF002808BF80BDBDE8F8
:1053A0008040FDF769BA000080B540F2B46046F66F
:1053B0000001C2F20000C4F2000100234FF4802C6F
:1053C000062280E80E00C0E9033CC0E90533838370
:1053D000FDF74EFF002808BF80BDBDE88040FDF707
:1053E0004BBA000080B582B0002043F63001019036
:1053F000C4F202010A6842F480020A600A6802F4F8
:1054000080020192019A00900868002240F4001086
:1054100008600868002100F40010009000980C203B
:10542000FEF7EAFC0C20FEF7D5FC39200021002213
:10543000FEF7E2FC3920FEF7CDFC3A2000210022E5
:10544000FEF7DAFC3A20FEF7C5FC452000210022D9
:10545000FEF7D2FC4520FEF7BDFC462000210022CD
:10546000FEF7CAFC462002B0BDE88040FEF7B2BCA1
:1054700010B545F2E56049F68452C0F60000C0F66A
:105480000002002102F05AF840F2E414C2F20004D3
:10549000206042F6810049F6A852C0F60000C0F62E
:1054A0000002002102F04AF8606010BD81B00021C6
:1054B00043F630000091C4F20200026842F002029A
:1054C0000260026802F002020092009A00910268F3
:1054D00042F040020260026802F040020092009A2C
:1054E0000091026842F001020260026802F00102CB
:1054F0000092009A0091026842F00802026002687D
:1055000002F008020092009A0091026842F0040240
:105510000260026802F004020092009A00910168A1
:1055200041F080010160006800F080000090009868
:1055300001B0704780B582B040F6F80041F2000239
:105540000021C2F20000C4F20002532340F2E73C03
:10555000CDE90011C0E90023C0E9021C8161FEF71A
:10556000EFFF002818BFFDF787F940F6F800C2F2F8
:1055700000006946FEF786FF002818BFFDF77CF99A
:1055800002B080BD80B540F6881041F20001C2F241
:105590000000C4F2010100234FF00C0C4FF4E13283
:1055A00080E80E00C0E90333C0E905C3C361FFF71B
:1055B000E7FC002808BF80BDBDE88040FDF75CB96E
:1055C00010B540F6002044F6000C48F2A062C2F28A
:1055D0000000C4F2000CC0F201024FF4805300211D
:1055E0004FF4806E0424C0E900C2C0E90231C0E972
:1055F00004E4C0E90611FFF7C3FC002808BF10BD92
:10560000BDE81040FDF738B980B540F6782041F28A
:105610000041C2F20000C4F2010100234FF00C0C63
:105620004FF4E13280E80E00C0E90333C0E905C35E
:10563000C361FFF7A5FC002808BF80BDBDE880401E
:10564000FDF71AB9FEE70000FEE7000000000000C9
:10565000EFF30980BFF36F8F154B1A681EF0100F20
:1056600008BF20ED108A20E9F04F10602DE90900F5
:105670004FF0500080F31188BFF34F8FBFF36F8F4F
:1056800002F0D0FF4FF0000080F31188BDE8090060
:1056900019680868B0E8F04F1EF0100F08BFB0ECB2
:1056A000108A80F30988BFF36F8F704700BF00BF77
:1056B000EC010020000000000000000000000000DD
:1056C000074B19680868B0E8F04F80F30988BFF30A
:1056D0006F8F4FF0000080F31188704700BF00BF4C
:1056E000EC010020012001F0BFFEFBE780B54EF287
:1056F0001000CEF20000006803F07EFC012808BF15
:1057000080BDBDE8804003F0B7B8000070B592B02E
:1057100006AC20463021FBF701F8002543F6400097
:105720000595CDE90355CDE901550095C4F2020078
:105730000168022641F080510160006800F080504D
:105740000090009847F200000095C4F20000016844
:1057500041F480410160006800F4804000900098AE
:10576000012006904FF4803007904FF480000D9098
:1057700006200E90A820CDE90F06042011902046A7
:105780000C96FEF7A5FC18B172B600BFFEE700BF8D
:105790000F20CDE901064FF4A05004904FF4805043
:1057A000059001A805210395FEF762FB10B172B6C2
:1057B000FEE700BF12B070BD4EF68850CEF200007A
:1057C000016841F4700101607047000040F6F80084
:1057D000C2F20000FEF75EBF40F64010C2F20000C9
:1057E000FEF758BF10B540F6FF3E0368C4F2000E46
:1057F00040F2004C7045C4F2010C25DCB0F1804F42
:105800002FD040F20042C4F20002904229D040F66C
:105810000002C4F20002904223D041F6FF72C4F2AB
:105820000002904227DC70453ADCB0F1804F5BD03B
:1058300040F20042C4F20002904255D040F600020D
:10584000C4F200024EE000BF40F60042C4F2000283
:10585000904206D0604504D00022C4F2010290427A
:10586000DBD14A6823F07003134341F6FF72C4F2A0
:1058700000029042D7DD43F6FF72C4F2010290426B
:1058800020DC42F20002C4F2000290422CD000223E
:10589000C4F20102904227D0604525D028E000BF25
:1058A00040F60042C4F2000290421DD041F60002D0
:1058B000C4F20002904217D041F60042C4F2000246
:1058C00010E000BF44F20002C4F2010290420BD08B
:1058D00044F60002C4F20102904205D044F20042B4
:1058E000C4F20102904203D1CA6823F44073134307
:1058F00023F080024B69D1F800E08C681A43026003
:10590000C46240F48062C0F828E0624504BF0969BF
:105910000163012141610169C90708BF10BD016927
:1059200021F00101016110BDB0B52DED028B40F2F7
:105930004864C2F200042068B0F57A7F04D100F018
:105940004FFF002001E000BF0130206040F2D03462
:10595000C2F20004B4F90C0000EE100A40F2683004
:10596000B8EEC00AC2F2000001F0A4FA40F2C82565
:10597000C2F20005B5F90000F0EE400A00EE100A90
:1059800040F26040B8EEC00AC2F2000001F022FA14
:10599000BDEEC00A10EE100A608240F2E834C2F296
:1059A0000004B4F90C0000EE100A40F27030B8EEBA
:1059B000C00AC2F2000001F07DFAB5F90000F0EE75
:1059C000400A00EE100A40F28440B8EEC00AC2F26B
:1059D000000001F0FFF9BDEEC00A10EE100A60826F
:1059E00040F2004440F22430C2F20004C2F200004F
:1059F00090ED000A94ED021A40F2A840B8EEC00AF9
:105A0000F8EEC10AC2F2000001F0E4F9B4F90C00AA
:105A1000B0EE408A00EE100A40F27830B8EEC00ACC
:105A2000C2F2000001F046FA40F2CC40F0EE400A2B
:105A3000C2F20000B0EE480A01F0CCF940F2484052
:105A4000C2F200000078BDEEC00A10EE101A002865
:105A5000618269D040F21C30C2F2000090ED000A71
:105A600040F28050C2F2000001F06EF940F2106482
:105A7000C2F20004B4F9280001EE100A40F2A4506A
:105A8000F8EEC10AC2F2000001F0A4F9BDEEC00AAE
:105A900040F2184140F2203210EE100AC2F200012A
:105AA000C2F2000292ED000A488240F2C850C2F2EF
:105AB000000001F049F9B4F9260001EE100A40F2A5
:105AC000EC50F8EEC10AC2F2000001F083F940F296
:105AD0005430C2F20000B0EE408A01F0CFF938EE47
